:20000000004B0020C54F0100FDC90110FDC90110FDC90110FDC90110FDC90110FDC9011056
:1C002000FDC90110FDC90110FDC90110FDC90110FDC90110FDC901103BCA0110A4
:20003C0065050021590400218D04002191040021B904002149060021F9060021210700217C
:20005C00ED0400216307002185070021F8B51047F8B50E4600210125AD0430470A480378F9
:20007C0000F00FF89B070BD0124C2078FF2807D0FF2121700E490F24240220436031C8825D
:20009C00F8BDF8B5014800476B020021E54C0000094801E00848000C064C05492278FF2AA2
:2000BC0001D1CA7A22706031C8827046801C004700620840F0070021070F080800F086F8B2
:2000DC0005990A0A6C2A09D1082078612069401C38600A312061059100207861F8BD000064
:2000FC00F0B4084710B50148004700008909000000F018F8E1B250290BD0042801D00628F8
:20011C0007D10D490978C90703D12178090700D402200A490A780C21114202D008498022B7
:20013C000A60FEBDFEB5074908470448017840229143017004480047C8000021170100210B
:20015C0000E200E0F1CC000003D10000FFB5054685B0034C2047FFB585B0DE01014C2047CA
:20017C00F73F0000CB41000070B503461546012906D0002906D0114A2846FFF767FF70BD07
:20019C000F4800E00F480524834203D84008641E002CF9DCE340012040031818820B0129B3
:2001BC0007D00649002380312846FFF751FFE0B270BD0249044B6C31F6E70000835C0000C3
:2001DC00A0BC862300830D23C0070021F8B51A4E0546716B1948CC09E401002D11D018499D
:2001FC00097802290FD0007B044372B60120154F4002B847114820380088C109C90704D001
:20021C0016E0C07AF0E7407BEEE70F497463CC61400AC0070CD001208003316B002D01D0A4
:20023C00014300E08143084631630749403948630020B84762B6F8BD80020021880000212C
:20025C009B0200217B3F00004040044010B5224A0021516121498968C90009D42149204B6C
:20027C00CA0598424B6B01D8134300E093434B631D49FFF735FF10BD38B51A4D287F0028F0
:20029C0027D11A480088C009C00722D1124C606900281ED1684600F08FF86846007801282B
:2002BC0017D168464078102813D208206061686A4009400120600E4A0021D1620D4A0221CC
:2002DC001160012108432060032108436862206038BD0948804738BD00400440180000212C
:2002FC000000930880020021CF680000680000210011044080E200E0C33B000007490028D7
:20031C0000D00420064A72B60978C90701D0105800E0802062B640B2704700006B020021FC
:20033C005860044010B5034CFFF7DCFE20680028FAD110BD0011044010B541200E49C000E7
:20035C0088470E490246886B496B90244B01C104C90E0B430A496343497D5943094B9B68D0
:20037C00FFF7F9FE10BD10B5FFF7F0FE040001D1FFF7E2FF204610BD7D3C00008050044051
:20039C00800200210040044010B501880A05930F084A03D18905890D112901D0904710BD22
:2003BC0090470446012803D172B6FFF7C5FF62B6204610BD4526000003B40148019001BD1C
:2003DC00A56F000000000000010003000A001F005900EB003902EA04F9099712EB1FA132CB
:2003FC00784A0A66FA828C9E63B617C964D6EDDEC1E3E0E5FF000000A36100007F140713F2
:20041C004D00F1242E1F133FB00A3F0007FF0000304000400140034007400F404F40CF4058
:20043C00CF41CF43CF47CF4FCF3FCF2FCF1FCF0F000000000F00080000003F0000004000DC
:20045C003F000000040068000E00DC00060043001A00050000000000020000003F00000042
:20047C0000000400C00000000400C0000000070050C00091007070C00091007082312100BB
:20049C00319110B10070018101B100A18231329110B101911110418141224F40F106007073
:2004BC0051C0019130181039833108D01831416F3100319110B1831414165B68007025108A
:2004DC0050C00091F4C3C0C02014036F3110410422C082312100319110B1633931104104A1
:2004FC0082C082312100319110B163393110A2C082312100319110B150101531051405925B
:20051C0000703F6452C0311031066131C102426412C13110213971065131E10242640070C7
:20053C008A65996588C0208250398039001E9F4041C001301814181A89C0308260398039AC
:20055C00001EA94041C001301914191A3C64369110B1349110B154B0007154A064B0F0804B
:20057C000022AF404012B09032B053825339533985643F6411C122C1426470C1C26811C1D9
:20059C00C2C0426470C1C76850C00091277298921516141642105310F0C121823131313929
:2005BC008139313151B070B272652772999270B262107310F0C331822131213981391B1037
:2005DC007265E2C08231608280318039020061B00071329110B151A061B0277230C2F36897
:2005FC0000008012B09032B0007050C000912772999262107310F0C3318221312139813995
:20061C0051B070B27E652772989270B242105310F0C1218231313139813931311A107E65D5
:20063C0051A061B02772B0C018693F6401C122C1426401C1C2C04264151A3C64359110B1E4
:20065C0053828564C012B09032B000703F6472C281C0426422C111C1426402C011C1426409
:20067C0062C031C3426462C311C1426402C311C14264538253398564E2C34764112240417A
:20069C0042C281C8426452C211C1426472C2E1CE426402C281C8426402C201C84264B0C0E0
:2006BC00546900703F6442C201C8426452C211C0426472C2E1C0426402C001C1426462C089
:2006DC0001C3426422C101C1426462C301C1426402C301C1426453828564007061B00071DF
:2006FC001214231C7A4D339110B10070329110B17269007061B000711318321C8649329161
:20071C0010B10070339110B17E690070C2C047641510C2C01216476441311514C0C080313D
:20073C0005145410A07804040070E6C0863101CC161467106182F0C3010417140070067316
:20075C0005720B720E7250B00071818060B050A092804122C3458080F1C1100430160111FC
:20077C000114016CD661D761D861D961DA61DB61DC61DE61E061E261E461366339639180F7
:20079C00F2C0210421318280422A1214321601112114016CEE610B62F4613963EE610B621B
:2007BC00F4613963E661E661E661E661E661E6619464E661F964E6612A65E6615665E661C7
:2007DC004667E6611012B0900E720673057210123090A761F0CF3C67D4C103C0C0C3546458
:2007FC0040785091507810926078209270783092807840929078609230789091108240390E
:20081C00F00601101031101400924267E661BCA0E2A054A0F08050221546408000222B476B
:20083C000D6240A02D828D318D391082F1C0100409101A824A391A041082803910040E10F0
:20085C00AB10BC10C21063642972E0CF3C6713B003B0C86653B050B054B064B013B0A566E2
:20087C001082E0223846AE660071418001222B47F08010224B46F022184764B031223842EA
:20089C0063B0CE661082E02238467066386264B06F818F318F3DD0DFFF923C6700714180CE
:2008BC0001222B4764B0F0805022654263B01182C1226046CE6605671182D1225246706627
:2008DC005262618172818131813D8231823DC0EFF19202933C670B62B081C091D3819782CB
:2008FC0090A2D3187F4EF30B1316E31CA44AC391E3813B149062BA1C8B46231E8B4AE31C29
:20091C008B4E90B207228B4290A21B1A9662E31CA44AC391E3813B18AB1CA04E9B1CA24AFB
:20093C00BC1CA442B2101082D0229D42F0801022A4466364A566A462AB1094629B10946202
:20095C0000703082F1C0100463B00071A86ABC10E0B00070B281C291D281018212185181DA
:20097C00121841828131813D121CBF4AE2B032B0B0DFF2923C67F1C72114C34E12C86291D2
:20099C00729131B0E1B0007008C006C000C86091709100700182B081C091D081101851814E
:2009BC0010180614E18042828231823D201CE44AE2B02122E84632B00510A0DFF5923C6735
:2009DC002122E842E2A032B031824139F0C00104011EF642181610C01030081C04476010D4
:2009FC00103C0610F1C76114FA4E16C8669171818131813D161C014B769131B006C008C0D9
:200A1C00007061818131813D408280390118F11C174B0114B080C0221747BCB033B090EFA2
:200A3C00F1920F933C67007003A063B064B0EFB056650071408000222B4764B02A65EFA047
:200A5C000071408000222B4764B003B03862018262818231823D80EFF19202933C6703A0AF
:200A7C005665E661A2806364E66150B00071E661E092D08200223D47C0B20070A080F022F2
:200A9C00594330B002C1623101C0A080001E5243F0225343A0F56031603953632010101A5D
:200ABC00136F236E11161216546B0070E1600000359F000000000000000000000000000074
:200ADC00B9840100C58801004113010089880100C18F0100BB8F0100D98801000000000009
:200AFC00278F0100451A01009D2C01009980010071AF00008F8A0100C9DB00006546000056
:200B1C00857301006145010000000000853701002F8F01004DBC0000F6C008000000410095
:200B3C00000001C3100000024210000003C414000004C518000005C618000006C71C0000E9
:200B5C0007C920000008CB24000009CD2C00000AD33800000BDA5000000C18B800000D3F1E
:200B7C00A600000E3FA700007FFFFF3F00F6C004000000C312000001C416000002C51800BA
:200B9C000003C61C0000044418000005C820000006C924000007CB2A000008CE3200000907
:200BBC00D24000000AD85800000BE59000000C2BBC00000E3FAB00007FFFFF3F00050000A1
:200BDC00EB390100C579010059C200000F8F01003190010029FF00001D7201007F8F010052
:140BFC008B8F0100858F0100340B0000890B0000890B00004E
:201000003C000000000000000000000034100000000000000000000001000000000000004F
:1C10200000000000000000000000000001000000000000000800000000000000AB
:20103C003400000000000000000000006810000000000000000000000100000000000000E7
:14105C00010000000000000000000000080000000000000077
:2010700030000000000000000000000098100000040000000000000001000000FFFFFFFF87
:10109000FF00000001000000080000000000000048
:2010A0002C0000000000000000000000C4100000040000000000000001000000FFFFFFFF2F
:0C10C000FFFFFFFF080000000000000020
:2010CC0038140000E410000095A1011091A70110A1C2011009B2011041B80110A5BC011078
:0810EC0085BC01102E0000007C
:2010F400280000000000000000000000141100000000000000000000FFFFFFFF0000000093
:081114000800000000000000CB
:20111C00341400003011000065C2011069C101101BC2011091BA011005BC0110E5BB0110EA
:04113C00300000007F
:20114000341400005411000071C20110A5B6011099BF011045B60110B5BA011025BC01104B
:04116000310000005A
:201164002400000000000000000000008011000000000000000000000000000008000000AE
:041184000000000067
:20118800240000000000000000000000A41100000000000000000000000000000800000066
:0411A8000000000043
:2011AC00240000000000000000000000C8110000000000000100000000000000080000001D
:0411CC00000000001F
:2011D000000000007017002004000000000000000000000020000000701000003000000084
:2011F0001C110000781700200400000000000000000000000C000000301300001800000098
:2012100040110000801700200400000000000000000000002400000048130000180000001B
:20123000000000008817002004000000000000000000000010000000A01000002C000000EF
:20125000CC100000901700200400000000000000000000002000000064110000240000001E
:20127000FFFFFFFF98170020040000000000000000000000280000008811000024000000AA
:20129000FFFFFFFFA0170020040000000000000000000000580000003C100000340000008F
:2012B000FFFFFFFFA8170020040000000000000000000000100000006013000018000000A4
:2012D000FFFFFFFFB01700200400000000000000000000001C000000AC110000240000001A
:2012F000FFFFFFFFB817002004000000000000000000000038000000F4100000280000008B
:20131000FFFFFFFFC017002004000000000000000000000054000000001000003C00000026
:1813300018000000000000000000000040130000080000000000000032
:1813480018000000000000000000000058130000080000000000000002
:18136000180000000000000000000000701300000800000000000000D2
:0813780002000000A49D010029
:041384000100000064
:0413880000000E0053
:04138C0000000F004E
:041390003200000027
:041394000100000054
:04139800801600209B
:04139C00000200004B
:0413A000A98F010010
:0413A400FDC901106E
:0413A8000000000041
:0413AC00000000003D
:0413B0000800000031
:0413B4000000220013
:0413B800FC12002003
:0413BC00010000002C
:0413C000981600205B
:0413C400080000001D
:0413C8000000000021
:0413CC00000000001D
:0413D0000000000019
:0413D400080000000D
:0413D8000000000011
:0413DC00000000000D
:0413E0000100000008
:0413E4008C14002045
:0413E80006000000FB
:0413EC0001000000FC
:0413F000DC110020EC
:0413F40000000000F5
:0413F80000000000F1
:0413FC0000020000EB
:0414000000000000E8
:021406002900BB
:021408000100E1
:02140A002500BB
:02140C003000AE
:02140E003100AB
:021410002E00AC
:021412000100D7
:0114140001D6
:0814180003000000549D0100D7
:081420000000000000000000C4
:0414280000000100BF
:04142C0000000300B9
:0414300083C4011060
:041434003C14000064
:041438003C14000060
:04143C0000000000AC
:041440009000000018
:041444009000000014
:0414480000000000A0
:04144C0098160020CE
:04145000D78A010036
:041454002000000074
:04145800E09C010013
:04145C00249C0100CB
:0414600009C30110AB
:04146400CB5C01005C
:041468003F620100DE
:04146C0095C801100E
:0414700097C8011008
:041474000000000074
:04147800DF9C0100F4
:04147C00C49A01000D
:04148000DC9A0100F1
:04148400AC9A01001D
:0214880008005A
:02148A00090057
:02148C0001005D
:02148E0000005C
:01149000015A
:041494000000000054
:041498000000000050
:04149C00000000004C
:0414A0000000000048
:0414A400A99001000A
:0414A800F5600100EA
:0414AC00D5780100EE
:0414B000556701007B
:0414B40009620100C8
:0414B800B156010028
:0414BC0035FA0000FD
:0414C0000B8D01008F
:0414C400C935010025
:0414C8000DC801103A
:0414CC001DC8011026
:0414D0000800000010
:0414D40024000000F0
:0414D80018000000F8
:0414DC0028000000E4
:0414E00020000000E8
:0414E4003C000000C8
:0414E8000C000000F4
:0414EC0034000000C8
:2014F0002DE9F04FB148B24C00784FF0000AADF12C0D18B9207808B117F066FD812020703B
:20151000AC4C57462078A781AB49A07060690F70427A017A0A9702F0070301EB03218DB2F7
:2015300051092CBF6FF001016FF00301477A6D18ADB237F07F0740F0C082A0490988A94269
:20155000C0F2BB820A3029460EF0B4FDA289216A04F1180089180831052217F089F804F1F3
:201570001A0B267FA089A77EE17E9BF80130ED1EADB2401D267182B2C3F3011907EB0120AB
:201590008A4FA28139786081002908BFB9F1020F00F09382B9F1020F00F38F82DFF82082C5
:2015B00069B110F0070F00F0888241B141460978862904D100F00701022940F07E8201130C
:2015D00001F00201022944DA617800F00700022838D1002936D1216A09A889180122083152
:2015F00017F046F8A089C54E401CA081306880478346DFF80C93C34D98F80000D9F800705E
:201610002968862819D11FB917F0DEFC484607689DF92400514617F033FD9DF9243078777A
:2016300050462968B8775846FB7788476189207901F0100110F07AF801E05846884716F01A
:201650002DFE3EE298F80000862803D1504612F095FE6178A7788FB181B9012F00F02D82B1
:201670006089022F03D110F0070F40F02682032F05D100F00701032901D01EE2608901098E
:201690004FEAE00C08D310F4405F00F01682A7490F78002F00F01182011301F002010229B3
:2016B00002DA810A80F009829BF80110C1F381088E11B8F1010F00F00082012E00F0FD8170
:2016D0009B49B9F1020F09D08A5D11F808108918CFB2AEB1C10913D3BF1E0BE07218414472
:2016F000127909798918CFB2C10905D258EA060306D0BF1CFFB203E058EA060308BF02273F
:20171000C0F30020391A60718D42C0F2D681ED1B5FEA5C010544A8B2208128BF4FF0250AA3
:201730005044743080B216F0C5FA2061002800F0C4810A9D742229460FF0BCFAE5706189EC
:2017500065781DB91C4A01F0200010701A4A6079DFF8E0A11578DDB1D0B901F00701032971
:2017700004D001290AD1504605783DB114F000FF10B916F023FD08B10420E0700B48057890
:2017900015B1B9F1020F01DA16F030F861896079226902F17403536093652589158123895C
:2017B000A2F85C300B091FD30CE0C04660100020002E0020282C0020022E00200A17002018
:2017D000042E0020C0F1030081B2A2F85C10906D0A46C44916F04CFF2269B2F85C10906D71
:2017F0004018618990656079E57891819BF80110C1F30113BB490978002801F0780141EAAC
:20181000030145EA010515744FF0FF0393730CBF21790A9982F8306082F83A8082F8491096
:20183000A189002FA1EB000188B2A08100F03D81216AE7803A4609186846083116F018FF12
:20185000E188A0894018A08121699BF80120087C6E46C2F30118921000F0400912F0030F3A
:2018700002F003073ED00A9BB8F1020F01D1C0090BD29DF801209DF8000000EB0220A1F886
:2018900044000DF10206A1F84200944DB1F84400EA89824203D04FF6FF7282421FD1032F9F
:2018B00010D07278307800EB022082B24A86A989B61C0120914211D04FF6FF71914218BF5D
:2018D000181C0BE020693146323017F095FB2069ED1C2946323016F0EFFC08360346002BDA
:2018F00000F0E6809BF8010085112AD02069B8F1020F09D0017CC90909D30FE0DC0F00201D
:201910002C140020E00F002059EA070706D172783178B61C01EB0221A0F84210032D0BD0B7
:201930007178327802EB012202850AE034290020749D01007E29002020693146283017F0CE
:201950005BFB608900F00700032804D0012813D15046007880B1206912F03CF960B90A987B
:201970009BF801709BF800602569E070C7F3011106F07800084328745B48007810B1B8F1DC
:20199000020F08DA5948007828B1607918B92079E17810F02DFF2069E28881890909C0F0CB
:2019B0008480806D694616F063FE2169E288886D80188865B1F85C00276A8018A1F85C007F
:2019D000A0890122391808310DF1250016F050FEA089401CA08121699DF82560896D0E70EC
:2019F00021699DF825509DF82570886D401C8865B1F85C00401CA1F85C0005F0070081F810
:201A10002400C7F3C10281F8252091F8240000284ED03348825C121DE2802089824247DCEA
:201A3000A089216A0918083105A816F021FEE288A0899DF814709DF817309DF816609DF88E
:201A500015508018A081216907EB0360174600EB0640042F00EB052088610CDD206906A99E
:201A7000521F1C3016F004FEE28821690DEB0200C07C81F82600886D05A916F0F9FD21699F
:201A9000E288886D80188865B1F85C008018A1F85C002089E288801A401E82B22281B1F835
:201AB0005C000A818018A1F85C0002F085FC06E017F0A2F910F060F801E016F09BFF0C4E74
:201AD0000C4D30688047226A0A991368197111682162296888470BB0BDE8F08F741100202A
:201AF000B29D0100422C002060100020022E0020DC0F0020E00F00202DE9FE4FDD498146AE
:201B10000122A1F130000260D8480768002FFCD0D74AE34EC027D848D84B176032689208BD
:201B300008D2324652F8042C03F14104120C42F0F00222704FF0000A8346C1F800A0DFF87A
:201B50008CC3DBF80810E04F0191880E43D2480E41D3802018744FF6D802A3F85120187086
:201B70003868C0F30464162CA8BF203C1E460F3E307800F01F001628A8BF2038844223D077
:201B9000624602F1980EE44ACEF800A0251A022D05DC15F1020FB8BF6FF0010500E0022517
:201BB0004019156800F01F05844245F4F855A6F866504FF001051560E8D110682E461660B6
:201BD0001068CEF80050106838460068C0F30420162808DB06E0A7F1D0000068C0F3046044
:201BF000162800DB203800EB2170401C162805DA10F10A0FB8BF6FF0090000E01520D54E3E
:201C100000F01F0040F4F850A3F85900306880083ABFD148C0F800A041F040616246C80E5B
:201C30008E0E80F0010000F00100106086F0010000F001009060019810F0AEFC014618200C
:201C500014F02AFBA7F13806CD4C30683568A4F10408C0F3870105F0030041EA0021D8F837
:201C70000400C04D446840F2FF32534688B22C21009028464038A047F06AC0F30D011C2060
:201C900014F00AFBB549706A014000F07C400143142014F001FB316A01F47C000904090CC0
:201CB0000143102014F0F8FA7D4AB06A1268C0F30351C0F30344520813D2DBF80020130504
:201CD00011EB237103D41029A8BF0F2100E05146120414EB227403D4102CA8BF0F2400E00E
:201CF000544644EA011400F47F4200F0FF01B9F1220F42EA044241EA020124BF00F0804044
:201D100001430C2014F0C8FA954CB9F1220F32BF01202068C0F30070B9F1220F4FEA4000B0
:201D300040F0200085F8090126BF2068C0F3407001208D4EB9F1200F40F0100085F8090150
:201D500038BF514606D33168C80C00F44070C1F384510143282014F09FFAB9F1200F26BF8B
:201D70003068C0F301505046B9F1220F4FEA400040F0600085F80C0126BF2068C0F3C06073
:201D90005046B9F1220F4FEAC00040F0800085F8010126BF2068C0F345505046B9F1200F76
:201DB0004FEA800040F47C40A5F89C0138BF6F490AD3306801038A15920501F47C1100F060
:201DD0000F00114341EA0031082014F065FACC3F4FF480002860664AB86D40F21E216FF3AB
:201DF0001F40814216D93868030E03F00F0113F00F0FC0F3034018BF491E072805D0062887
:201E10000EBF0720801C00F00F0041EA0011A2F108000170DDF804C0CCF381477F1E02D04C
:201E30007F1E31D02CE02068810C29D24FF480412960D2F80210430AC0F3033703F08003BF
:201E500021F08F010B4347EA0301C2F80210D2F80130060A66F30303C2F80130116800F0C4
:201E7000E70721F0E70147EA01000CE09402224300600C4040100940AC3F00501562084013
:201E90004FF000402A46106005480068C0F3C0070FB94020A8624FF40070286402E0C0464B
:201EB000B03F005020684027C0F3C14040F0300085F8C800CCF3815080B3401E08D0FFE7AC
:201ED000401E23D0022122E08813005000002043012014F0BBFF06460420314610F046FE24
:201EF000042014F0B3FF8642FAD12248066826F07F4014F037FDD8F81400036807214FF0CA
:201F10006022300E98474FF4806028600321042010F02CFE09E0C0462C200940042001212B
:201F300010F024FE144814F01DFD203C206800F03F0085F8CB0FD8F80030124ED968306852
:201F50000220884710480D4C076001212160BDE8FE8FC0460000094094042A43FCFCFC004B
:201F70008C13005040A00C409813005000803F400A600840A83F0050BD378600940460429F
:201F9000A40100102C20094000600C402DE9F04FCA4C0220002504F11C01ADF1540D41F83F
:201FB0000C5F401E8D60FAD104F14000A846062701467F1E21F80C8BFBD14FF00809CB4B7A
:201FD000C949CB4EA0F800901B1D816004F11C07AA4623F003031A46F11A21621046A3611C
:201FF0001E46E3615B18834200F2BF81881021F00301E82302EB800040F804ACEC393360FA
:202010004046C2F8E810E83222611DF02BF96061B9493868DFF8E8B220610A680BF10C06D5
:20203000326049687160B348B4494A4615F014FC28B9B048CE490A68026049684160D048B1
:20205000D04FC0F8AC70C0F8B450C0F8C450CE4EC0F8C850CD4BC0F8B060CD4AC0F8B83072
:20207000CC4FD0F8AC10C0F8BC20C0F8C07009B1404688471DF06EF9C74ECDF838A0414679
:202090000C2206F128000EF015FEC44F0222ADF8209041F27073F762708DADF82220616A28
:2020B00033631027099740F01900708508A8884700280CBF0A9F47460120ADF82C90616A70
:2020D000ADF82E000BA888479DF830005C4620700D99616077B1D021397087F80180B87053
:2020F00087F8038087F804803946BD600220FD6013F08EFBAA49182001221DF069F87D49A2
:20211000E22016F001FD18201DF04CFB60706068B346CBF808000BF02FF8AB4F0BF1840025
:20213000A060DBF808509F4C41466762F520A56016F02AF9F820414616F026F99A4D0D200E
:202150000E26687005F10C01AE7005F118000CF029FFA860687816F085FB00B1C146A878CA
:2021700016F080FB08B949F010099049A86816F0E3FD8F49C82205F1240012F037FC8D4806
:20219000B9F1100F686010D1606A70B1C26862B1FF208DF810004FF6FF77ADF8127004AE4D
:2021B000ADF8147096E803009047834D05F1140005F108010CF0F6FE6860404616F0E6FD8E
:2021D0004746AE1E814606F8028F02207070384616F07CFE014668684A46C9B213F0FAFD24
:2021F0007F1C022FEFDB754905F120004FF4FA7212F0FCFB724D05F11000291D0CF0D2FEE6
:202210002860606A002845D00769DFF8B8916FB10094494612A80A688988026012AE8180EC
:2022300096E8030001234246B847606A002831D0C26852B1494612A80B688988036012AF51
:20225000818097E803009047606A18B307690FB306208DF80800ADF80A0010AEADF80C80FC
:2022700002AD009695E8030042460223ADF84020B847666ABDF840007769A08057B1BDF856
:20229000400002AE401CADF8400096E80300022210ABB84737A016F0DFFBE820012116F0B7
:2022B00073F8E720092116F06FF8606A0626002838D00769002F35D002E0C046D80F00204C
:2022D0008DF818600425ADF81A500EA8ADF81C8006AB009093E8030042462B46B84788B9CA
:2022F0000E98193082461DE049F90100072E0020004B0020BC160020C8FF01007C9D010043
:20231000B0160020606A8DF8186006AFADF81A504469ADF81C8097E80300CDF83CA02A46BB
:202330000FABA047CDF838A050460DF097FCE0200C2116F029F84F20032116F025F85720A8
:20235000052116F021F84E20042116F01DF85920032116F019F815F0B3FE0BF102000121F0
:2023700016F0FBF900F032F8FCE740F804AB3AE6F012005054492053656E736F7200C046C0
:202390000802002071540100D55801001DEF0000AD5D010009C80000C00D002020BF020059
:2023B00031DD0000BC0C0020281200208D5E01001985010099860100B8120020A1F5000092
:2023D000FC150020AC9D0100B40200202DE9F041CC4CCD4DDFF834836088ADF1600D410859
:2023F000C0F083800CA808A90FF0A0FD01286DD1404624300068D8B10769CFB106200226A9
:202410008DF808000022ADF80A600FABADF80C2002AE009396E803000C23B84740B9BDF8C3
:202430003C006085109FE7621198206316F0E8F90226BDF82210BDF8200084F8246009AAC9
:20245000A18310F091FE011C02D0BAA016F0B3FD30460FF073FFBDF830009DF82C70A5F820
:2024700040000DA985F8427005F1500016F029FDBDF8320005F1460609A9A5F84E00304679
:2024900016F01FFDBDF82200B5F84010A5F84400502015F06DFFB5F84E10532015F068FF8A
:2024B0004A20314616F030FB95F84210E12015F06BFFB5F844104B2015F05AFF05F10A00E1
:2024D000102116F04AF90120207008E015F002FBE06001200FF032FF002016F0A9FAA01CC1
:2024F000012116F024F92046408880080DD3E06A14F098FA14F002FF00B2A082E08202F0E4
:2025100023FBA01C022116F012F96F89780805D305F10A00012116F00AF96F89B80805D392
:2025300005F10A00022116F002F96F89780917D387491820422217AB1CF04AFE95F85A009B
:2025500005F10A06032818BF042802D1286E14F051FA13F085F83046102116F0E8F86F897A
:20257000B80907D30EF084FD05F10A00202116F0DEF86F89F80907D30BF086FD05F10A00C3
:20259000402116F0D4F86F89780A13D395F85D0016F04EFA95F85D0005F10A06032803D171
:2025B0005220012115F0D8FE30464FF4807116F0BEF86F89380950D395F85C0005F10A06EB
:2025D00000283ED0401E36D0401E02D0401E30D03EE095F85810472015F0D6FE95F859107A
:2025F000542015F0D1FEB5F844104B2015F0C0FEB5F84010502015F0BBFE092701238DF850
:20261000597095F842008DF85A3016AA8DF85B3050498DF8580018201CF0DAFD95F85A00BB
:20263000012815D1E87898B13046202116F095F80EE003200AE05220012115F08DFE022047
:2026500004E05220012115F087FE01200FF042FE3046082116F06BF86F89454617B1A868A5
:2026700016F0D6FDE988687849081CD3A97802094FF0000601D301290ED040090ED301293F
:202690000CD030A016F0E8F9A01C012116F065F8A86816F0BDFD01E012F03CF96E70A81DCB
:2026B000012116F044F8608800283FD10A200825294CADF812004FF0FF37ADF81050616ABE
:2026D000059704A88847002830D10720ADF84850616AADF84A0012A88847149E159628BBC3
:2026F0001E499DF84E200878904214D19DF84C004A7882420CD089684B6C63B10021324691
:20271000984708E0C00D00208C0E0020BC0C0020304600F06BFD159840B1ADF818500320B7
:20273000ADF81A00616A079606A8884718B0BDE8F081C04641757468204572726F723A20EB
:20275000307800C05374617274696E672E2E2E00154501001F8F0100D80F0020B016002034
:202770002DE9F843DFF808830F460446F80B80F08381DFF8F892B80F80F03581BD4DB80868
:2027900080F02A81F80A80F00081B80B80F0EE80780B80F0C080380C80F0AF803809C0F073
:2027B0008881082016F0E0FA002840F0A180802016F0DAFA002840F09B8068460CF03EFCAE
:2027D000012803D10098002800F0928000240125E0B216F083F848B1867A3EB1857290F965
:2027F000090005FA00F0C0B213F0BEFD641C032CEED34C46032020756068783016F00EFC67
:20281000B048002601680660AF4950F8082CB146324640F8089C04F1380016F00FFC304648
:2028300015F0D8F916F014F80146A268E069891A090BC1F1FF3282422CBF08444FF0FF3003
:20285000E06194F820601EB12169B0EBC12F1FD915F020FA494600B12946081C14D09B4886
:2028700040F60901018049464180427B65F303024273027B61F303020273416016F08CF9F1
:20289000418811F4406FFBD084F820504946E16112F0FAFF8E484D4649460560022014F0A5
:2028B0005DFF022013F046FD11200AF047FE207818B96068403016F0CBFB8648007810B958
:2028D0000E200AF03BFE94F8210020B184F82150052013F02FFD8048B4F98C60A061B4F9B9
:2028F0008E1025758E4214BF022007200DF026FC27F0080710F09AF9DBE00835296839B159
:20291000C86840880028FBD0C86840880128F7D027F40047EEE713F079FA38B12046A469CB
:202930006FF4807100224FF00073A0476D494C46002204F1380016F081FB0220E66820755A
:2029500015F086FFD4F81C21636804F58E719A4214BF0122002226B1801B01EB8206030B29
:20297000B360002027F48057E060C3E74046066846B1B06830B13069B6F93410B46800228A
:202990002023A04727F4005793E016F051FB4C460546206F0646C8B1D4F88000B0B9D4F814
:2029B000840098B904204D4B20756068A36110B1783016F033FB3069606015F049FFE06092
:2029D0004FF4006104F1B40016F04AFB284616F01BFC27F480676CE006F0BAF8286808B97D
:2029F00027F0020765E016F023FB0546042014F02DFAC8B1207CB8B148460830006898B1AF
:202A1000064615F025FFE168801BE060000B8842E06002D240184008E06040F6C411814276
:202A30002CBFB0F5967FE160284616F0EDFB13F0EDF980B1A56920466FF4807100224FF001
:202A50000073A84726480068002808BF47F0020701D010F0EBF82046646900214FF08063D5
:202A70000A46A04727F0005723E0C046B01E0020381F0020281F002016F0DAFA41460E68F5
:202A90009EB1B16A890810D2B56AB16AA943B16216F0BAFBB06850B14DB13069B6F93410B2
:202AB000B4682A460023A04701E016F0ADFB27F4804727B1404639462C3016F0D1FABDE850
:202AD000F883C04614100440353801003C2D002000000460361700206DBB000071A40000F8
:202AF000201F00204DD200002DE9F04FBB4C0546A07AADF1340DC00014F040FD0890B8480F
:202B1000006880470B900AA9822004F081FABDF82800002834D14FF000084FF6FF76ADF867
:202B3000288024E0ADF81460BDF82800ADF81660FF210822ADF8100006A816F0A7FAA77A53
:202B500057B141460A4608987F1E00EBC200016002F101028680F6D18DF82480D42004A9AE
:202B700002F06EFBBDF82800401CADF82800A088BDF828108842D5DC82200AA902F060FBB2
:202B9000B64F0020A0464FF6FF79A3463988ADF8280006E0B14FBDF828003988401CADF861
:202BB0002800BDF828008142DCBFAD48016840F34A81AC4800784FF0000A012654460DE0E3
:202BD000B8F80400641CA4B2AAE0BBF80600641CA4B23CE0A348641CA4B20078A04208DC27
:202BF000002ED7D1BAF1000F2ED1687F0028D1D02AE0BDF828008DF802406946ADF8000084
:202C1000D02004F005FA0028E4D19DF80C30012B08D19DF80B0028B90DF1030015F01CFD6E
:202C30000028B7D16F7B002F0CBF0522092256469F42CFD10DF1030005F10E0115F0CAF8B4
:202C50000028C7D04FF0010AB8F806000024A0425CDDBDF82800ADF802406946ADF800004E
:202C7000D12004F0D5F90028AFD1BDF804008145ABD0ADF8100004A9D42004F0C9F90028BB
:202C900058D106A8291D082215F0A4F800289CD028886F88ADF81400BAF1000FADF8167063
:202CB00022D0287B98F80A708DF82400381C08BF00200FD0089902460020083908318B880C
:202CD000994507D0BDF828609E4203D0521E00F10100F3D187422DDD0899AF6901EBC000E1
:202CF0000760BDF828608680D42004A902F0A8FABAF1000F0AD0287F9DF80610884205D060
:202D10008DF806006946D12002F09AFAB8F80600A0427FF43FAFB8F80400DFF84CB100244D
:202D3000A04240F38C80ADF81040D42004A904F06FF918B14A480168192485E006AB1846FB
:202D500015F08AFC38B9291D1846082215F042F800283FF435AF6F882888ADF816702E7B20
:202D7000ADF8140098F80A708DF824603B1C08BF00200FD008991A460020083908318B88AC
:202D9000994507D0BDF828609E4203D0521E00F10100F3D1874203DC314801681A2453E05D
:202DB000089A2E1DBAF1000F0CBF0021A969C00011501218BDF8280031469080082206A8D7
:202DD00015F056FC9BF8007037B1DBF850201AB1BDF8101030469047002605E0FC16002034
:202DF000DC0F0020761CB6B2B8F80600B04221DDBDF82800ADF802606946ADF80000D120EF
:202E100004F006F9E82803D0BDF804008145E9D1BDF810000023ADF804002F7F8DF8073098
:202E300004A98DF80670D42002F00AFAD120694602F006FAB8F80400B0427FF7C3AE084980
:202E50000968A042AAD000240B988847089814F0B1FF20460DB0BDE8F08FC0460417002023
:202E7000E00F002007170020601000202DE9F04FCE4C2068416EADF11C0D02A888474FF040
:202E9000000AA146CA4DCDF808A068698DF80CA0002839D113F0C4FFC8B113F0C1FF01284E
:202EB00015D013F0BDFF052811D013F0B9FF0C280DD013F0B5FF0D2809D013F0B1FF0B28D9
:202ED00005D013F0ADFF0E2801D016F07DF813F0A7FF687000280CBF50460120A870D9F8C8
:202EF000000000F1200120B916F06EF8D9F800102031096805F1180088474FF4FA70288591
:202F1000AC4FEF6206262E63AB48DFF8B082026898F853405146080100EB41108018877F95
:202F30002FB9437F491C9C42C9B2F4D102E0417FA14205D1824203D013F010F89E48026807
:202F5000A0499F4B0868D1C883E8D10095F90100012805D00D2803D00E2818BF504600D140
:202F700005201946087098F881005169964C51F82010E16115F002FD632005A911F0C2FAEB
:202F900098F8530012F052FD0646A07B012161F30200A07398F8530013F09CFA04281ED065
:202FB00098F8530013F096FA03280DD0207C40F00F002074E07D6AF30300E075B07B0528AA
:202FD00014BF242029200FE0207C40F00F00207429272775E07D6AF30300E07505E0207CA4
:202FF00040F00F00207421202075607D6AF38710607598F8530013F06DFA042814D0B07AEB
:2030100060B99DF81400617D401E60F305016175A07D20F03F0040F0180010E09DF8141016
:20303000607D61F3050004E0607D20F03F0040F002006075A07D20F03F0040F02000A07562
:20305000B189B07BE3890A27401D484390FBF7F161F3CF03E381B089277C1922800390FB54
:20307000F2F107F00F002269534F0F23484390FBF3F161F31C2222613968237E0A7F62F3C9
:2030900002032376277E087FC11061F3C307277698F9420010F07CF9B0F1FF3F04D00108C6
:2030B00028BF4FF6FF706083308971683768424B4FF47A7B401E414307EB5100B0FBFBF0D1
:2030D00020841868806957460078A4F802A001216760627B84F8240061F30302627315F0E7
:2030F00067FED0B9B0893949394EBBFBF0F0C0B208709BFBF0F0307098F85300022806D017
:2031100013F0E8F9032808D105215C2001E00221A820304A1170304E30706869D9F800602E
:20313000DFF8C0A068B3384611F05EFAE87898F85310884213D12A7998F88110D9F8006060
:2031500068698A420ED102213A468DE80600366D3B46214602AAB047204804601DE0D9F8FD
:20317000006068697168884701211D48D9F8007001703E68124905F1180322465046B04726
:2031900006E022460E49346805F118035046A04768610C4814490068086098F8530098F893
:2031B0008170E87007B02F71BDE8F08F4C1100203413002067CE000048110020FC28002065
:2031D0008C2D002050110020EC14002050160020052E0020F3170020F01700203C110020CE
:2031F000F217002058260020E8160020B0B50446BA480768ADF1480D002F00F0A8812078E7
:20321000401E112800F2A381DFE810F06A015201380123011B010401F100E300C300B200A5
:203230008D005D0053004200A1012A001C001200F86B002800F08B81684621460CF054FD1C
:20325000F96B82E1386C002800F081816846002101220DF02FFD60788DF80000396C74E167
:20327000F86A002800F07381684600210E220DF021FDA11C684615F053F9A57BA18900228E
:20329000ADF80A1005B101228DF80C20F96A5DE1B86B002800F05B816846002102220DF02D
:2032B00009FDA5788DF8015060788DF80000B96B4BE1786B002800F04A81684621460CF081
:2032D00013FD796B41E1386B08B36846002114220DF0F0FCA5788DF80150A3680193A289BF
:2032F000ADF80820A17B8DF80A1060788DF80000E57B8DF80B50237C8DF80C3094F911207B
:203310008DF80D2061690491396B684688476068002800F01C810146F22008700020487045
:2033300012F076FA13E1B86A002800F010816846002124220DF0BEFC6078A11C8DF8000066
:203350000DF1020015F0ECF804F10C0103A815F0E7F8257EE08A04F119018DF818500B22AD
:20337000ADF816000DF119000BF0EAFCB96AECE0786A002800F0EB806846002102220DF046
:2033900099FCA5788DF8015060788DF80000796ADBE0386A002800F0DA8068460021122283
:2033B0000DF088FC658862796078ADF8025023798DF80520E11D8DF80000A5798DF8043045
:2033D0000B220DF107008DF806500BF0B9FC396ABBE0F869002800F0BA806846002101223D
:2033F0000DF068FC60788DF80000F969ADE0B86910B1204610F03EFDA07820B9A06900286B
:2034100000F0A58003E0A069002800F0A08014F041FB9CE07869002800F0998068460021C6
:2034300013220DF047FC6D46A01C0168406829600B22686004F10A0102A80BF081FC796905
:2034500083E03869002800F0828020460AF0C6FD7DE0F86800287AD0684600210E220DF0F0
:2034700029FC6078A11C8DF800000DF1020015F057F8A089ADF80C00F96866E0B8680028E0
:2034900065D06846002114220DF014FCA01C01686D46296040686860A07A0B2204F10B01BC
:2034B0008DF808000DF109000BF04AFCB9684CE0786800284BD06846002110220DF0FAFBC4
:2034D00060786588211D8DF800000B22ADF8025001A80BF035FC796837E0C046B81600206F
:2034F0003868A0B36846002119220DF0E3FBA01C01686D46296040686860A07A410824BFCD
:2035100001218DF80810810824BF01218DF80910C10824BF01218DF80A10010924BF012134
:203530008DF80B10C10924BF01218DF80C1030F07F001CBF01208DF80D000B220DF10E0005
:2035500004F10B010BF0FCFB39686846884712B0B0BD7047BA482DE9F84F0025B94CB749DB
:20357000056094F8E200002800F06381012800F02F81B54E02283CD0032840F05A8151F8EB
:20359000250CD4F8B8100029A0F5C060C4F8D400B8BF49420028B8BF4042814226DA4FF0C3
:2035B0008057D7F8A4014568B4F8BC0030214FF47F42082300903046A847D7F8A401456805
:2035D000B4F8C00004214FF4F802122300903046A847D7F8A401B4F8D070456820214FF452
:2035F00040620A2330460097A847012584F8D8501AE151F8258C15F08DFB2F4600B901274E
:203610003946924F38680028FCD0B146012609F10409D9F82CA03E6009B115F081FBCAF34E
:203630000720C4F8BC0015F075FBAA4600B9B2463B68002BFCD0D9F800B0BAF1000F3E6052
:2036500001D015F06DFBCBF38440C4F8C00015F061FBAA4600B9B2463B68002BFCD0D9F8B1
:203670001C90BAF1000F3E6001D015F059FBC9F38120C4F8D000B8F5C061C4F8B81000F0E1
:203690009C8094F8D80068B9C4F8D410D4F8C000C4F8C800D4F8BC70C4F8C470D4F8D03015
:2036B000C4F8CC30D4F8D400D4F8BC30002854BF02226FF0010204F1C8010F6800EB4000C9
:2036D0008018421000EB927207EBA2000860D4F8C810C4F8C43000291CDD1E293CDDD4F863
:2036F000CC0030B93429B4BF15391E21C4F8C81025E02A29BABFD4F8C8000B381E20C4F872
:20371000C800D4F8C4003F28B4BF401C3F20C4F8C4001FE0D4F8CC00032812D011F10B0F6C
:20373000C6BFD4F8C8000B30301CC4F8C800D4F8C4000028C4BF401E051CC4F8C4500325A3
:2037500008E011F1150FC6BFD4F8C8001530301CC4F8C800C4F8CC504FF08057D7F8A401BB
:20377000B4F8C43030214FF47F424568364800930823A847D7F8A40104214FF4003211232A
:20379000456831480096A847B4F8C860D7F8A40104214FF4F802122345682B480096A847EA
:2037B000D7F8A40120214FF440620A23B4F8CC60456825480096A84701E084F8D85040F204
:2037D000FF50404502D8801C40452DD208202EE051F8251C1E4F4BF2F5204843060A386851
:2037F000C0F3814001280AD113F088FD12F02EF815F09CFA3111C010484306EBE03694F8C6
:20381000E50030B91348006820F07F403618760801E084F8E5501048310C06600127416016
:203830000E4D8760287808B90B2000E0052084F8E40003F025FBBDE8F88FC0462D400C4047
:203850002C500C40A80B002000A00C4000800C40B43F0050102009403C600C40999C01002B
:203870002DE9F04F09AFADF13C0D08900A92388809911E46ADF81800101C08BF002000F092
:203890006C81017800274FF0010B401C4FF0FF39B846DA460A9058E1252940F04D810178B7
:2038B000401C0A902D2918BFADF8068004D10178ADF806B0401C0A9030291CBF42464346C6
:2038D00004D10178401C5A465B460A902A29CDF800804D4617D1049330680A9BCDF808900F
:2038F000C01C20F00300001D306050F8044C1978002C009403F101000A9018D5ADF806A06C
:203910006442009413E044460AE0600000EBC4004018A0F130040A9801780094401C0A9025
:20393000302901DB3A29F0DBCDF8089004932E2929D10178401C2A290A9011D13168CDF8CD
:203950000880C91C21F00301091D316051F8045C002D48BF454601782B46401C0A9011E0E5
:20397000454643460AE0680000EBC5004018A0F130050A9801782B46401C0A90302901DB4C
:203990003A29F0DB02930AB1224604926C2904D04C2918BFADF8048004D10178ADF804A026
:2039B000401C0A900BA8CDF80C800FAB07906429059379D0692977D0BDF818C0752965D005
:2039D000782961D06F295DD0702946D0632936D073291AD00A98401E0A900998012812D92A
:2039F00061490C68B5F1FF3F03D0A84288BF6D1C00D8099D029508A80AA932466B46A047A0
:203A10003F18039865E0454617E03068C01C20F00300001D306050F8040CBCF1010F01464D
:203A300008B94FA00146079114F0DAFF0390B5F1FF3F4FD0A8424DD9039528464AE030689C
:203A5000C01C20F00300001D306010F8040C8DF82C005D46039558463CE0082035680490A3
:203A7000E81C20F00300001D306050F8041C082210230FA80DF03AFF401E079040210170F9
:203A9000079823E0082302E0102300E00A233068C01C20F00300001D306050F8041CAA429F
:203AB000BCBF2A1C04920DE03068C01C20F00300001D306050F8041CAA42BCBF2A1C0492D3
:203AD0006FF009030FA80DF011FF07900599081A0390009C241ABDF8065000945DB906E048
:203AF00008A8202109AA13F068FB009C7F1C641E0094F5D50398401EB0F1FF3F03900FD14A
:203B1000BDF8060001281CD10098401E009018D408A8202109AA13F050FB00987F1CF4E752
:203B30000798017809AA08A813F047FB0798401C079003987F1CDEE708A809AA13F03DFB8A
:203B50007F1C0A980178401C0A9000297FF4A4AE089808B14146017038460FB0BDE8F08F09
:203B7000286E756C6C2900C0E09D01002DE9F04F064692F80880307D09AF8A46ADF11C0D3C
:203B900004933528039205D0114606F170000A2214F06EFDDFF8A4C23AF07F0503D16046F9
:203BB000801D008801E04FF6FF700590F08A800934BF002008203076F08AC00834BF10205D
:203BD00080207076F08A400903D260461430007800E00020B076F08A41082CBF2024002419
:203BF000000928BF44F010047568307D4FF0000B0AF07F0A6D1E02280EDB0C2808DC0C283C
:203C100004BF4FF0020B44F4085444F0030404E00D280CBF02200120044396F88C200AB153
:203C300044F00804E110200900D32AB1DFF8009299F8383013B90AB1DF20F4E0480815D378
:203C5000049A039906F12403304608F091FA051C05D07570F32013F09CFEE8B2E4E0F08AA0
:203C7000C00828BF44F0100475686D1E336DABB9B36D9BB999F85110012903D13089B0F50F
:203C9000EE7F06DA200904D202290BD144F4005401E044F480544FF0010B03E044F4085486
:203CB0004FF0020B6348007801280CD0624803784BB196F86B00042805D124F480544FF039
:203CD000020B44F4005444EA8A34BAF1020FA4B20AD0BAF1030F10D1ED1F09F1440128460C
:203CF00015F08AF96D1E08E0B9F82A00001205F8010999F82A0005F80109BBF1020F0CD06A
:203D1000BAF1000F15D0B8F1000F0CD004990598814208D144F040040BE0B8F1000F08D196
:203D3000BAF1000F05D00599081205F8010905F8011944EA8824B8F1020FA4B209D0B8F1A2
:203D5000030F0ED10399ED1F284615F055F96D1E07E003990888001205F80109087805F8C5
:203D70000109B8F1000F05D00498011205F8011905F801093878E0B9307D0D2814D068B99F
:203D9000306D28B999F81400411C89F814100DE099F83900411C89F8391007E099F8220076
:203DB000411C89F8221001E015F032F805F8010901E044F48074201205F801092C70706812
:203DD0003789401BC1B2756078183081200929D3B06D00B130621848007810B1307D0D282F
:203DF00020D1716A11F1150002D115F0EDF8716A886A421C8A62B0623189306A471B0091A3
:203E1000C91B019088B20290706A96F88C20B16A2B46153009F020F800281CBF7070051C57
:203E30007FF41BAF0020707007B0BDE8F08FC046FC280020FD2D0020601000201C290020D1
:203E5000AE482DE9F04F20300068ADF1240D11F067FA08B113F00EFEA148DFF88CA2DFF891
:203E70008CB2A34D0068A34E089013F09BFB13F021FEF469B769B4F57A7F13D0C01B4FF438
:203E90007A720023A4FB000102F028F880464FF47A72002314F010FC2246002302F01EF896
:203EB000381801E0A0EB0708B0618C488B49006820F00200086068688047DBF80010DBF83F
:203ED000042044460919B1F57A7F0DD34FF47A73B1FBF3F3D218CBF804204FF47A731F465B
:203EF000B1FBF7F25A43891ACBF80010A968884768688047DAF804100919CAF80410A968A4
:203F10008847DAF8000000285FD007464FF00009686880474FF000081FFAA4F3079083B9A3
:203F30005FFA94F36BB93979E0B2884204DD79682046884209D20AE03879E1B2401A387161
:203F500008E079682046884201D3414601E07968091A7960B88878B9FB8853B9FB6843B1E8
:203F70003B8933B1B87A194609F08AFFF8687860B88808B9FB880BB13B896BB9B9F1000F5D
:203F900004BF3868CAF8000003D03868C9F800003868B846074601E0B9463F68A968079896
:203FB0008847B8F1000F0ED0B8F8043043B9B8F806302BB998F80A00B8F8081009F060FF28
:203FD000404613F0F7FE002FA2D144484349006840F002000860F06828B3804723E014F88E
:203FF000060C3169A4F10C07032819D0F16A9DF816000978884210D114F8080C12F0BAFD3E
:20401000B979012903D0022908BFA07000E02070002021460EF0BAFF05E013F02BFD02E0BF
:2040300009B12046884708200727ADF81000696AADF8127004A88847069C0028CFD0294827
:2040500000680088C8B1686880472649096800220C880A80A9688847089A00202146307087
:2040700090470446FF203070686880471D4909680A8814430C80A968884713F093FA0746B0
:20409000B7F1FF3F1CD007B91B4F306AB84238BF071C686880471C230446726AADF8023093
:2040B0000820ADF80000696A019268468847B16A3846491CB16211F093F9A968204688475C
:2040D00008200A27ADF808004FF0FF34ADF80A70696A039402A88847C7E6C04610E000E0D3
:2040F000BC9D0100E82D0020C42D002040170020D80F0020CC1300208EC2F528D41300201F
:20411000F0B504460846ADF16C0D401E70D0401E0DD0801E00F00981401E00F0EF80401E2F
:2041300000F0E180401E00F0AD80002042E142F2010007A90FF0D0FC42F20B0008A90FF0C1
:20415000CBFC42F206000DF165010FF0C5FC42F207000DF166010FF0BFFC42F2050019A9D5
:204170000FF0BAFC04A80FF063FC06460DF1670142F209000FF0B0FC9DF86700002808BFEB
:20419000002503D0022012F0DDFD0546204607A9042214F06DFA241D08A90222204614F0A7
:2041B00067FAA71C9DF864009DF865309DF866109DF8674007F8010B9DF8672007F8013BFF
:2041D0002B4607F8011B610706F0070444EA916005F0030404AD40EA8410314607F8010BCE
:2041F000012400953846019406F0C5FC0A309AE042F206000DF165010FF06EFC42F2070035
:204210000DF166010FF068FC42F2040019A90FF063FC04A80FF00CFC05460DF1670142F2D6
:2042300008000FF059FC9DF86700002808BF002303D0012012F086FD03469DF864009DF8B4
:20425000657004F8010B9DF8666004F8017B9DF867209DF86770790704F8016B03F0030731
:2042700005F0070646EA916004AE40EA8710294604F8010B002700962046019706F07BFCF9
:20429000001D50E042F2150011A90FF025FC13AF42F2160039460FF01FFC15AD42F21700EC
:2042B00029460FF019FC17AE42F2180031460FF013FC204611A9082214F0DAF9083408224E
:2042D0002046394614F0D4F904F1080708223846294614F0CDF9082207F10800314614F08E
:2042F000C7F9202066E042F214000DF122010FF0F3FBBDF8221002200A1258E009A80021E3
:20431000202214F0C3FE42F2130009A90FF0E4FB09A814F0BDFE024609A9204614F0A8F93A
:2043300009A814F0B5FE80B244E042F20E0002A90FF0D2FB0DF10A0142F20F000FF0CCFBE4
:204350000DF10B0142F20A000FF0C6FB03A942F210000FF0C1FB0DF10D0142F211000FF04A
:20437000BBFB0DF10E0142F212000FF0B5FBBDF808009DF80B209DF80C709DF80D609DF850
:204390000E509DF80A1004F8010B02F00102001204F8010B07F0010042EA400206F001008C
:2043B00042EA800205F0070042EA4012042004F8011B22701BB0F0BD2DE9F04FA34DAA8907
:2043D000296A28698918806D2A89ADF11C0D083114F04EF92989A8892A69401883B2906D1D
:2043F00040189065296AAB810DF116000122C918083114F03DF9A889296A0422401C80B29E
:204410000918A8810831684614F032F9A8890421001DA881684612F052FC06462C69009021
:2044300013F094FEE0632C69304613F053FCA4F84000EA2013F0ADFA4FF0020B7C482C6902
:2044500080F800B0217CE878084320749DF91600002114F015FE84F846009DF9160021894C
:2044700084F8480004F17400A065B4F85C00401A61680026401801466060A08984F84760FE
:20449000820A18D2020924D310F0070F07D000F00700032812BF081C6068401C15E06168AE
:2044B000C87800F00702401000F0380000EB42004018001D09E020460DF070F92C69606E81
:2044D00010B1B4F8680080B160686061A089000913D294F86000E8B120460FF01EFD2C698C
:2044F000E06CB8B1B4F85000A0B905F1100014F0F2FC2E610DF040FB96E0204604F08CF88F
:2045100060702C696778A06960651FB1F22013F040FA2C694E4F387800287FD0A189DFF800
:2045300014A101F00702022A57D16B78002B54D16378002B51D12969B0460DF10E008DF8F4
:204550001780283114F058FD296901A80A22283114F08EF854462E6920887B6A401C2080FE
:20457000706E04210DF11702984705F1100930B93148006818B19DF8171080F86810296952
:2045900091F83000022810D12C4ED9F800005A4606F12001283013F05FF928B931460DF13B
:2045B0000E00163114F028FD296925480078862808D16088401C60808989287901F0100196
:2045D0000DF0B4F8387818B1B96C09B128698847484614F080FC464623E01A4A1378BBB172
:2045F000C1F30131022913D16078002882D19DF816001549534608709888401C9880E87855
:2046100004F11C0204F1280110F0ECFA2C69387820B1B96C11B1204688472C69204605F051
:204630002FF92E6113F03AFE07B0BDE8F08FC046002E0020241500202C140020FC2800204C
:20465000042E0020022E0020062E0020282C0020601000202DE9FE4F05469A46934688461B
:20467000009514F0E5FC97490CAF0C680290AC4208BF4C68944D6FF00100019034B104F1FA
:204690009C0014F051FA002840F00A8113F054F8061C00F01181DDF8009009F1780014F06E
:2046B000BDFCC6F80C80B5F98C009BF80430401C86F836306FF31F30A5F88C00C6F808A066
:2046D000B5F88C00C6F81090804BB08697E80006002106F12002202703EA090907EA0A0A28
:2046F00006F1180383E800060B4686F83730184682E8030033631A46F262DBF8003003B125
:20471000336398F80C0000F00F00022804BFD8F80800F06240464368002B18BF002F40F0AF
:20473000BB8000886FF30900B0F5305F18BF022006D196F8370040F0100086F83700082055
:2047500006F1180191E8800106F1180342EA080240EA070183E806000098D5F844118842D0
:2047700007D195F85001410824BF00F0FE0085F85001002C6ED0A34605F1700100980C68C5
:20479000894612F01FF9B24600275FEA00080FD1D9F800202AB1D5F88010304609F0C8FB75
:2047B00018B9B8F1000F03D105E00127002432E0444600E0444624BB584631460DF01EFF47
:2047D000041C02D0A2451AD12CBBDAF80C10D9F80440087B00F00F0002281CD1087BC0112E
:2047F000400818D2002C4ED1D5F8800098B1D5F8801030463A4609F09BFB60B943E004274D
:2048100009E0D4F8008030462146424609F090FB0028CFD00227012F04D105F17000514678
:2048300013F0A6F8022F0AD1226805F170001AB9514613F08CF802E0514613F077F8042FBC
:2048500004D196F83610204613F071FB37F0040001D005E0002705F17000314613F077F873
:2048700017F1030F0FD0B6F9340096F83770019047F0800086F837000098002180F8C01019
:2048900014F040F818E0B5F98C0000F6FF706FF31F30A5F88C0006E07F1E1846FFB23AE7A8
:2048B0006FF00200019095F8500140F0040085F850010098C5F84401029814F0A5FC0198A4
:2048D000BDE8FE8FCC1F0020B01E0020FFEFFF9F9B482DE9F84F0C4601210170DFF834A23F
:2048F000DFF838B28F4E9749904699462027002217EA090710460A7000EA080008BF00284A
:204910006ED14FF0E04702EA080017EA090708BF00283BD15146DFF808C248884FF486050C
:2049300012EA090705EA080108BF002917D17A4912EA090701EA080108BF002967D05D46FE
:20495000EC80B9F1000F288105F1300181E8000308BFB8F1806F5AD1022858D10FE05D4677
:20497000EC80B9F1000F288105F1300181E8000308BFB8F5803F4AD1B0F5505F47D1E869BB
:20499000674643693868214698473EE05D4696F90000B5F90670401EBC42307017D12A89BD
:2049B00005F1300003C8002904BFB0F5803FB2F5505F08D0002904BFB0F1806F022A02D0FE
:2049D0000DF0DAF803E00FF089FC13F009FE564A92F90000401E10706FF00101E98014E0C0
:2049F000524B1F785D466FF00100A91D088067B14F480078832802D04E498120087029693C
:204A100019B1104688472146E8E751464888464F0221002501EA080115EA090508BF00292C
:204A300055D043F201415D46814233D0C91C814230D0B5F9063096F900109C42A1F10101C4
:204A5000317004D043F6040181422ED12BE005F1300090E806004FF4820300200B4010EAF5
:204A7000020408BF002B12D105F1300191E800184FF4003410EA0C0004EA0B0108BF00292C
:204A900002D10DF079F810E00FF028FC0DE0FCF727FD0AE0687896F90040401C6870601E63
:204AB00030700DF069F813F065F9204B00206FF00104AAF802001878EC8010B11E48007859
:204AD00008B913F08DFD97F90000401E387096F9000010B919480021017097F9000080B1D6
:204AF00002214FF0E04001EA080110EA090008BF00290AD097F90000002806DC14F064FA67
:204B100003E0002001460BF0A7FD0D4900200870BDE8F88FFC13002000000C8C301100205A
:204B300048130020E5160020E416002060100020042E0020002E0020022E0020DA16002025
:204B5000F1170020DC160020F0B500215022ADF15C0D02A80CF0AEF8F22016A913F0CCFFE1
:204B7000904DBDF8580016A9A5F87000F32013F0C3FFBDF858000DF10901A5F87200E22071
:204B900013F0AAFF688DADF81200410806D305F11401096805A80160BDF81200810805D3D9
:204BB000291D098806A80180BDF81200C10807D305F1180109680DF11A000160BDF81200B5
:204BD000010908D30DF11E0005F1540130220AF0B7F8BDF81200400903D3286B1590EF6A07
:204BF000149771480078022807D0032805D0002100B9012101200BF0AFFDBDF812004108F4
:204C10002CBF0F240B24810824BFA41CA4B2C10824BF241DA4B2010924BF3034A4B2400982
:204C300024BF0834A4B2204612F054FB071C00F0B78005260DF1090100F8016B0A68026083
:204C500049684160BDF81210083014F093F8BDF81210844648080BD3BDF81410604614F002
:204C700089F8BDF8161014F085F8BDF812108446880807D3BDF81810604614F07BF8BDF88D
:204C900012108446C8080BD3BDF81A10604614F071F8BDF81C1014F06DF88446BDF812108D
:204CB000424A9388080961D3BDF81E10604614F061F8BDF8201014F05DF8BDF8221014F0E9
:204CD00059F8BDF8241014F055F8BDF8261014F051F8BDF8281014F04DF8BDF82A1014F0D8
:204CF00049F8BDF82C1014F045F8BDF82E1014F041F8BDF8301014F03DF8BDF8321014F0D8
:204D100039F8BDF8341014F035F8BDF8361014F031F8BDF8381014F02DF8BDF83A1014F0D7
:204D300029F8BDF83C1014F025F8194614F022F8117814F01FF8BDF8421014F01BF8BDF82C
:204D5000441014F017F8BDF8461014F013F8BDF8481014F00FF8BDF84A1014F00BF8BDF8DF
:204D70004C1014F007F8BDF812108446480906D31499604610F084FF159910F081FF05F1FF
:204D90001C01224630463B4604F0F8F90820ADF80260074D01972968ADF8000068468847D4
:204DB00017B0F0BDC00D0020BA120020BC0C0020FC0F00202DE9F043071CADF1240D00F058
:204DD0001381F86B002800F00F81B7F84020002A00F00A81007817F130014FF0000603D0A7
:204DF00097F83810052902D0002E00F0FD80DFF80482401E69D0801E55D07F4CC01E3DD0C4
:204E1000001F40F0F1807A4DA878002800F0EC8003A8314604220BF04DFFB7F840002A7837
:204E3000032840F0E180F86B401C13F0A9FF434603F17C073988012A01F10101398009D0CA
:204E5000D988421A022A05DBB3F87E108918491EA3F87E10D880E7782E70400808D2012F68
:204E700000F0C2800121E17030460BF075FCBBE0002F00F0B980E6703146F5E7012A40F0A4
:204E9000B3800725E0788DF8205000280CBF0121311C3046E1700BF05FFCE07802228DF8D6
:204EB000210028460CE0012A40F09E804346B3F85C000122401CA3F85C0004208DF820001F
:204ED000394608AB04F05AF98EE0684631460C220BF0F0FEB7F840000B285ED1FC6B14F8DB
:204EF000010BC14689F82800204613F049FFA41C0346204613F026FC0546201D13F022FCF8
:204F10008046387A4C4689F82400022806D0396804F11C0001607A68426001E03888A08377
:204F300003F00100190928BF40F00800590928BF40F010006085834218BF0226B5F57A7F57
:204F5000ADF8020016D32D48A84213D3E56213F01BFC814613F018FC00EB092913F014FCFD
:204F700000EB0920B0FBF5F16943401A0A3011F059FD00E00226E06AB8F1640F019008D30B
:204F900042F21070404504D3C4F8308013F038FC00E00226206B029001E044460126022570
:204FB0008DF8016068468DF800500FF0FBFC0DF111009DF801108DF8105013F0DBFEBDF857
:204FD000021013F0D7FE019910F05AFE029910F057FE39460D2204AB284604F0CFF8B4F8C3
:204FF0006200401CA4F8620009B0BDE8F083C0468C0E0020C00D0020BC0C0020407E0500BC
:205010002DE9F04FADF1640D18918B49934604469A4608220DF1570013F02AFB20466946E0
:2050300011F0CFF8061C00F0FB80DFF81082A41C0225204602A90EF047FF071C00F0E980EA
:205050000DF139000021162214F020F89DF809305B1E00F084805B1E40F0D4800A2F40F3F0
:20507000DF80A41C04A80422214613F001FB241D05A80222214613F0FBFA42F20B000DF11B
:2050900016010EF029FDBDF81600BDF81410884200F3C680A41C14F8010B14F8013B8DF879
:2050B0003A3014F8013B14F8011B8DF839000DF139028DF83B30204602F02CFF98F80010FC
:2050D0000028044400F0AC80012906F1020900F095804FF400500DF14F010EF0FDFC0DF12D
:2050F0004F000DF15701082212F0B6FB38B118990DF14F00082212F0AFFB00287ED142F2B6
:20511000010004A902F090FA42F20B0005A902F08BFA42F205000DF1390102F085FA0DF111
:205130003A0142F2060002F07FFA0DF13B0142F2070002F079FA0FA942F2090002F074FA50
:205150009DF83C0020B1022858D142F2030001E042F20D000DF13D0102F066FA4EE0042F02
:205170005EDDA41C14F8010B14F8013B8DF83A3014F8013B14F8011B8DF839000DF139026E
:205190008DF83B30204602F0C5FE0028044447D0189806A905F06EFD9DF8360078B99DF81D
:2051B0003C0020B9189806A909F06EF803E0189806A908F04DFC002818BF071C37D19DF8CA
:2051D00036000DF13901162240F004008DF8360008A813F04DFA9DF83C0006F1020950B15C
:2051F0009DF84E100DF13D000EF06CFA9DF84E10091A8DF8351006A80FF068FB7F19BF1CAA
:20521000BDB203E0E41906F10209A41CA9453FF710AF022D04DDB01C761B0027B61C02E042
:20523000002067270646ABF80000AAF80060384619B0BDE8F08FC04614960100FD2D002059
:20525000F8B50C46844D874EDFF820E2A988D128074613DCDFF818C2D12800F09480713803
:2052700000F0CD80401E00F0C680401E00F0BE80113810D04C3800F09F8007E0D2386ED0D6
:20529000401E58D0401E31D0401E29D0384613F011FCFF2801D1F420F8BD704D05EBC00500
:2052B000297909B9E88860B1E888884208BFFB2000F0D0802278914200F386809042C0F2B3
:2052D000838067480068804707466A8828782146801913F0CDF96448016838468847B8E03B
:2052F0002178022970DA7046641C62E0208881426ADD736BA2888100870001EB001107EB67
:205310000017706B5A52E188736BC0190822418004F10801D819001D13F0AAF9706BAA7A23
:205330002169C019C068D20013F0A2F9706B217DC01901748DE0278829893846814243DD6C
:20535000706A2C25A11C102205FB0700153013F08FF9706A616905FB0700816279E02288BB
:205370002889A17890422FDD02292DDA706A2C234F1C03FB02031F75376B01EB420502221F
:2053900007EB450030E022882889618890421BDDEB888B4218DD604600682C2505FB020012
:2053B0008589A942A4BF4D1C8581F06A241D02FB031100EB810048E022882889A17890428C
:2053D00002DDE87A884201DCE820F8BD736A2C254F1C05FB023502FB0013580000EBC30032
:2053F000B36A2F710A22C018E41C2FE0002C30D0704608222AE064B306F1340025E01CBB99
:205410002F8937B3EA88ED7A00231C4604FB05F1480000EBC100B16A4018716A5850F06A43
:2054300004FB02F100EB8100716AC9188860716A306B7F1E194400EB840003F12C0304F163
:2054500001040861E2D104E060460422214613F00FF90020F8BDC046FC16002068990100EA
:20547000DC0F0020182B0020E00F0020502B00203C2B00202DE9F047DFF80CA20746AAF1C3
:205490003500DFF8F8810068800880F0E78011F035FF814908310B6800261C17641C990D86
:2054B0000AD2C0F13E0110F10A0F4FEAE101D8BF08218C42B8BF0C1CDFF8C4C1990E0FD2CA
:2054D000590E0DD36246143A1168C1F304211629A8BF20391268C2F30462162A0EDB0CE084
:2054F000634AD2F87C11C1F304611629A8BF20391268C2F30442162A00DB203A091991469D
:20551000162905DA11F10A0FB8BF6FF0090100E01521584C584D01F01F0242F4F8522280CF
:205530002A6812F0030F18BF0126D20828BF46F002060FB146F00406424692F90740041B3F
:20555000052C04DA9479B44208BF918866D00F28A0F10F0827DB08EB0014A4F1F0084FEA65
:20557000282EBEF1070F88BF4FF0070E7546062D88BF06255CF82570042404EB85046546D1
:205590002C59E41B04F0FF05F70824BFC4F307273D44B70824BFC4F307473D44770828BFA9
:2055B00005EB146501E00025AE465CF82EC0F7080CF0FF0424BFCCF307273C44B70824BF46
:2055D000CCF307473C44770828BF04EB1C64ADB2A9EB0101A8EB0E277D43002905F1800538
:2055F00004EB1524D8BF012103F0FF0334254D43A9B259434FF6FF73B1FBF4F18B4238BFD9
:20561000191C802889B2918005DA10F1800FB8BF6FF07F0000E07F20D071967119480068FD
:205630001F2910604FF0000008D340F2FF128A4206D24908401C8A42FBD301E01F21918028
:20565000124F0F39090940EAC10047EA0001CAF8FB1F0026CAF8FF6FBDE8F0870C490D4F63
:20567000424608200F60921D1070BDE8F087C0463C1100506E62084024220840CC2D00204E
:205690009C130050082009403500094000E7A48030100940FDFDA400AC3F005001282DE960
:2056B000FE4F40F0EE80DFF810B2DBF8DC00012840F0E4800220CBF8DC0012F09BFA012071
:2056D00010F0F2FF5FEA000805D00120CBF8DC0012F0A0FAD7E013F0BFFC6C49029000206B
:2056F0000860012011F0B2FB012818BF002003D100200CF0B5FF0120654900900020654F6C
:2057100008603868112013F023FB00280CBF00240124102013F01CFB08B144F002040F2077
:2057300013F016FB08B144F004040B2013F010FB30B1624814300068574E016B3088884748
:205750000A2013F005FB002600B101264FF0805A0AF5DC75301C04D02868504E016B308833
:2057700088474F48012606602868816944F0200088474C48066013F0E5FA00F00101019129
:20579000400814D2484813F09CFA8146B9F1040FF8D0B9F1010F05D1DAF8D80142684248E7
:2057B000032190474149086820F0030008600020FFF760FE2B683868986B80470198012836
:2057D0000DD0B9F1010F05D1DAF8D80142683648314690473549086840F0030008602C482E
:2057F000066028684169204688470B2013F0B0FA20B12868284BC16A188888470A2013F051
:20581000A7FA20B12868254BC16A188888472448032206602349CBF8DC2000230B6028682C
:20583000416B204688470128F9D13868042010F03BFF044615481E49066038680868800979
:20585000FCD30098012802D130460CF009FF13F067FA082010F028FF07460298CBF8DC60C2
:2058700013F0CEFC134800880CF0F8FA12F0D2F957EA040018BF4FF0FF3804E06FF00408CC
:2058900001E06FF001084046BDE8FE8F0C400940000222432C2009408E9A01008A9A010018
:2058B0002820086080010443004003402422084014100940949C0100A80B0020A401001029
:2058D0002DE9F043002B08BF002A10D10029BCBF00204FF0004106DB50EA01071CBF6FF0D1
:2058F00000006FF000410CF038F8BDE8F0835FEA530898EA610803D50026404266EB010152
:205910005FF0000913F0004E03D00026524266EB03031C461546002C08BF8D429CBF2C1CC8
:205930000025070C47EA01470E0CB44208BFBD429EBF240444EA15442D04070A47EA0167E9
:205950000E0AB44208BFBD429EBF240244EA15642D02470847EAC1774E08B44208BFBD4240
:2059700000F29280870847EA81778E08B44208BFBD427BD8C70847EA4177CE08B44208BF6B
:20599000BD4265D8070947EA01770E09B44208BFBD424FD8470947EAC1674E09B44208BF4B
:2059B000BD4239D8870947EA81678E09B44208BFBD4223D8C70947EA4167CE09B44208BF93
:2059D000BD420DD8E60146EA5566EF01B14208BFB84201D3C01BB14159EB09094EEB0E0E11
:2059F000A60146EA9566AF01B14208BFB84201D3C01BB14159EB09094EEB0E0E660146EA7E
:205A1000D5666F01B14208BFB84201D3C01BB14159EB09094EEB0E0E260146EA15762F01B9
:205A3000B14208BFB84201D3C01BB14159EB09094EEB0E0EE60046EA5576EF00B14208BFCC
:205A5000B84201D3C01BB14159EB09094EEB0E0EA60046EA9576AF00B14208BFB84201D3D8
:205A7000C01BB14159EB09094EEB0E0E660046EAD5766F00B14208BFB84201D3C01BB141F9
:205A900059EB09094EEB0E0EA14208BFA84201D3401BA14159EB09094EEB0E0EA34208BF4F
:205AB000AA423EBF2D0A45EA0465240A8AD373464A465FEA080803D50026404266EB01011E
:205AD0005FEA480803D50026524266EB03031E4617460B46024631463846BDE8F083704716
:205AF0002DE9F047064637680C465FEA0208ADF1180D14BF00214FF0FF3107F1480081468C
:205B100012F0CFFF002818BF0B2040F0E68000257448FC60B8F1010F057007D065700220AC
:205B300010F038FF062010F035FF01E0012060702078012840F29080801E012857D9801E5A
:205B500001282CD9801E012800F2B88013F070FA8246A078009021782846062908BF01201B
:205B7000019001200290A068228A6368E16806F0DDFD0746504613F047FB002F40F0A08092
:205B9000B8F1000F02D012F0D7FC02E0304611F07FF8002800F0878013F054FA21E013F052
:205BB00047FA012782460097A168A278606824782B46042C08BF3B1C08F0B8FB0746504639
:205BD00013F022FB002F7BD1B8F1000F02D012F0B3FC02E0304611F05BF8002863D010F0D8
:205BF00079FE3F49C1F8B0510D60074668E013F01FFA8246E08A0090E0680190208B0290E6
:205C1000A0780390207D04900121059122782846022A08BF081CA368E178626801F044FF5F
:205C30000746504613F0F0FA002F49D1B8F1000F02D012F081FC02E0304611F029F8002890
:205C500031D010F077FE071C3AD1E078A168E28A23690AF03BFEC8E713F0EAF98246E08A3D
:205C70000090E0680190208B0290A0780390207D049001200590277807B90546E17862680F
:205C9000A368284602F08AF80746504613F0BCFAB7B9B8F1000F02D012F04EFC02E03046CD
:205CB00010F0F6FF08B9142017E010F02BFE071C06D1E07821690EF0A9F996E74FF0FF375C
:205CD000B8F1010F05D0022010F034FB062010F031FB484613F0BCF9384606B0BDE8F087ED
:205CF00050450240162B00202DE9F04F664E80463068416EADF11C0D02A88847634C2068CF
:205D100008B913F061F910F0EDFE002800F0B8805F4901205F4F08703978012902D000215D
:205D30000AF09AFC20684568048912F003F85A4E2888000908D3307830B1214628460AF070
:205D500019F8002840F09C80214628460AF0B2F9642005A90EF0D6FB50483178DFF840B12A
:205D7000007831B95846007807F03EF9012804D083E007F039F901287FD14A4FA01C86B2DE
:205D90000DF1150107F110000680E9200EF0BAFB9DF81500012805D13446C4F3022040F069
:205DB000180005E0241DA4B2C4F3022040F0080005F8010D002105F8014D3C46E5619DF85A
:205DD00014706180002F0CBF374838480226384A8DF80C608946A061364DCDF80890394F82
:205DF0001060354B6980B81C0180687B20F00F0040F00300687318688047DFF8C0A0069041
:205E1000B8F1010F1AD0B8F1040F17D0B8F1000F13D0B8F1050F2F460CD0B8F1030F07D1F0
:205E30005846103000780FF001FEC07B022806D0274602E0DFF888A001E03D462F46124842
:205E50000068214B056DB0468DE800031868394602AA5346A8471D491D4E08803168002831
:205E700009D41C4A92F900001B4F401C107006983C60884704E0069888471A200AF0EAFA8C
:205E900007B0BDE8F08FC0464C1100202C140020DB160020F117002060100020FE2D002020
:205EB0003F2900207C1500204E9055550E7A55550C14002018160020DC0F002009820000BB
:205ED00065B0000034160020481300209C130020E00F0020E41600203C1100202DE9F0410C
:205EF0001C4615468C4208BF854282BF00230022E5E0002C08BF002D0AD100290EBF002815
:205F10006FF000006FF0000100F0E1F8BDE8F0815FF000085FF0000E002C08BF8D429CBF02
:205F30002C1C0025070C47EA01470E0CB44208BFBD429EBF5FEA044444EA15445FEA05457A
:205F5000070A47EA01670E0AB44208BFBD429EBF5FEA042444EA15645FEA0525470847EA4B
:205F7000C1774E08B44208BFBD4200F29380870847EA81778E08B44208BFBD427CD8C70895
:205F900047EA4177CE08B44208BFBD4266D8070947EA01770E09B44208BFBD4250D8470934
:205FB00047EAC1674E09B44208BFBD423AD8870947EA81678E09B44208BFBD4224D8C7098B
:205FD00047EA4167CE09B44208BFBD420DD8E60146EA5566EF01B14208BFB84201D3C01B3B
:205FF000B14158EB08085EEB0E0EA60146EA95664FEA8517B14208BFB84201D3C01BB141EB
:2060100058EB08084EEB0E0E660146EAD5666F01B14208BFB84201D3C01BB14158EB0808DE
:206030004EEB0E0E260146EA15762F01B14208BFB84201D3C01BB14158EB08085EEB0E0EDC
:20605000E60046EA5576EF00B14208BFB84201D3C01BB14158EB08084EEB0E0EA60046EA8D
:206070009576AF00B14208BFB84201D3C01BB14158EB08084EEB0E0E660046EAD5766F0009
:20609000B14208BFB84201D3C01BB14158EB08085EEB0E0EA14208BFA84201D3401BA1413E
:2060B00058EB08085EEB0E0EA34208BFAA423EBF2D0A45EA0465240A89D3734642461E4685
:2060D00017460B46024631463846BDE8F08170472DE9F043044668480E4601681F46154638
:2060F000ADF13C0DBEB1B5B130784FF0010808FA00F001420FD01046002105F025F8666081
:20611000A56012F095FF5D4D81462878022804DB484613F079F80020ABE000285FD103F0C2
:2061300077FE5749086840F00200086007A812F043FD544E5449707807AA099005F1B40024
:206150000FF01AFC514905F1E80007AA0FF014FC07A812F0F9FC192107AB30784C4A08907A
:2061700005F138000FF0BCFA4A4A05F154001A2107AB0FF0B5FA4849002205F19000134621
:206190000DF0F4FE454A05F124000421002311F0DDF8B078012802D10E2007F0B3FC05F14B
:2061B000780012F037FB05F1700012F033FB002085F820004FF4FA72C5F82421287507215A
:2061D00085F8B811E861364B1870C5F8282185F821000526A86033492E612878A96105EB9B
:2061F0008001401CC1F81C41C0B22870484613F00BF81FB9684612F03FFB6F463868206067
:20621000B86941462062388A61746082786800280CBF40F6C4100021E06021742248A0618D
:20623000E0616061F86800B1A061786900B1E061B86800B16061A02204F1280000210AF0DB
:2062500039FD04F14000002110F06EFE0BA812F015FE16490D9404F1780000220BAB0DF02C
:2062700085FE134904F19C0000220BAB0DF07EFE20460FB0BDE8F083D4210840B01E0020E5
:206290000020094034170020D1840100D5C8000035380100E9050100657C01000D41010099
:2062B000E22D00206DBB0000078200007D800100B58F01002DE9FE43DFF8C081704D0E462B
:2062D000B00958D3444604F11C074DE00178D0290EDBD02909D181783970C178797001798F
:2062F000B97085687D60C168B96011F083FD48E004F1100528600BF051FF28460EF048FF20
:206310003FE0884794F82410491E84F82410A9688847009801788DF8041020614378CBB166
:20633000DC2B0DD0DD2B0BD0E42B09D0F32B07D0DE2B05D0DF2B03D0E82B18BFDB2B0BD122
:2063500006F056F89DF80400162805D168460EF01FFF01E00BF022FF9DF80400162803D0CB
:2063700004F110000EF014FF38460FF083FE002869680090C5D1F00BA9464446C00306D0CD
:20639000404F20780AF024F8002800909ED1700905D32E208DF8040001A80BF0FFFE700848
:2063B00005D325208DF8040001A80BF0F7FEB00805D326208DF8040001A80BF0EFFEF008A6
:2063D00005D327208DF8040001A80BF0E7FE300905D329208DF8040001A80BF0DFFEF0091F
:2063F00008D300208DF805002D278DF8047001A80BF0D4FE300A08D300208DF8050030272F
:206410008DF8047001A80BF0C9FE700A08D300208DF8050035278DF8047001A80BF0BEFE54
:20643000F00A08D300208DF8050023278DF8047001A80BF0B3FEB00A08D300208DF80500F6
:2064500036278DF8047001A80BF0A8FEE068D9F8041080B18847E16800270091D9F8081075
:20647000E7608847009804F1100630600BF096FE30460EF08DFE0020BDE8FE83502C002053
:20649000D80F00201C1700202DE9F043894614460546ADF12C0D69460FF093FE5FEA00086E
:2064B00000F0C580AD1C0226284602A90DF00CFD071C00F0BC809DF80900814509D0ED19F5
:2064D000BF1908F10200BF1CAD1CBEB2B042EBDCADE0401E05F1020500F08D80401E50D0A9
:2064F000801E33D0401E26D0401E20D0401E18BF622040F0AC80202F40F0998020462946C9
:20651000082212F0B5F8083504F108000822294612F0AEF805F1080704F110000822394664
:2065300012F0A6F807F10805183408220BE0022F7DD1022207E0202F79DC2046002120224E
:2065500012F0A4FD3A46204629467DE0042F6ED120462946022212F08BF8AD1C15F8010B04
:20657000A070287800F00100E0702878C0F3400020712878C0F38000607128784011A07150
:2065900064E00A2F53DD0DF112000021162212F07DFD20462946042212F06AF82D1D201D73
:2065B0000222294612F064F842F20B0004A90DF093FABDF81000A188884238DCA81C10F8CC
:2065D000011BA17110F8011BE17110F8011B217210F8011BC1F3C202A2720DF1120201F09D
:2065F00099FC20B39DF82700A0819DF81670E78104F1100025E0042F19DD0DF1120000215F
:20661000162212F043FD15F8010B207015F8010B607015F8010BA07015F8011B0DF11202FA
:20663000C1F3C2002071284601F074FC08B967200DE09DF82700E0809DF81670278104F16B
:206650000A0011220DF1160112F012F800200BB0BDE8F0832DE9F04FADF1240D079003F02B
:20667000D7FB6048007810F0DBFB5F4D0024012806D90C3804D0401E0ED0401E09D006E0F9
:2066900011F0E2FE022804BF01210C1C06D0696805E005211F2401E0032107246960534A47
:2066B0001068C0F38150012806D152F80C0C0127020E07FA02F0044312F066FA524AFF23DA
:2066D0004018401E471C28607F1E02F8013BFBD1079A1268002702F0FF03FE2B20D0DDF846
:2066F0001CC096463B4601260EF0FF02FF2A10D0904205D3914203D806FA02F2144201D0AF
:2067100002206CE017430EF0FF02DFF8FCE00EF802305CF804EF5B1C0EF0FF02FE2AE5D11C
:20673000092007F0EFF907980121A86005F1280010F0FAFB05F19806A8464FF0010A4FF05A
:20675000040B0025A9460AFA05F0044216D1074204BF05F0FF0141F4C04104D02A480799C3
:20677000405D51F82010224805F026FCE8B24FF0FF3111F05FFCC6F8009001E0C6F800B070
:20679000D8F800006D1C361D8542DCD904A812F0DBF9184C184A2078102104AB059008F173
:2067B0000C000EF09DFF684612F006FACDF80C906A4660681149029008F164000FF0DCF87E
:2067D0000F4951F80D0C20F4F85040F4005041F80D0C0C4FC1F8FFAF4846C7F800A009B055
:2067F000BDE8F08FE32D0020940A0020B43F0050007FC7679C9D010061800100B154010065
:206810000D30094008000940D80A0020F0B542F20400ADF1240D0DF11B010DF05DF942F242
:2068300005000DF11A010DF057F942F2010069460DF052F95F4C58489DF81B10606364205F
:206850004143E162554921659DF81A104843A0645348E0665348007858B342F203000DF1BB
:2068700006010DF039F90DF1060011F0D3F89DF81A0070B1009860B104F1440001210DF031
:2068900001F920460DF07EF8012084F8200084F8240042F202000DF106010DF01DF90DF16C
:2068B000060011F0C7F804F1280001210DF0EAF811E042F202000DF106010DF00DF90DF1B7
:2068D000060011F0B7F804F1280001210DF0DAF820460CF0EAFB344800780FF0A7F8C07BD0
:2068F000022804BF012084F8800094F8840000284FD110F0C7FC42F21B0001A90DF0ECF889
:206910002A4DBDF8040001A9A88442F21C000DF0E3F8BDF8040001A9E88442F21D000DF01C
:20693000DBF8234EBDF80400311D088007A95D200DF0E8FD9DF81C000127002806BF00207F
:2069500085F8340085F83470A88C40B100EB401080B210F013FEE86208B912F063FBE88CD3
:2069700048B1410001EB800188B210F007FE286308B912F057FBB08838B1C00080B210F06E
:20699000FDFD306008B912F04DFB09F0E5FD84F8847009B0F0BDC046CD3F010029B40000B1
:2069B000AD870100FD2D00204F290020582B0020D42D0020742800202DE9F04F624E0546E0
:2069D000B07AADF15C0DC00010F0D8FD0C9001208DF84800E87D092205F118018DF84900EA
:2069F0000DF14A0011F044FE58480068804715900DF14601812000F00BFBDFF854B1A87DAB
:206A1000A8B3012004278DF803004FF0000A8DF80470AC8A8DF802A06946ADF80040D22012
:206A3000FEF70EFCB1464FF6FF78544616941AE001EBC00150460860A88A8880D42008A9CC
:206A5000FEF7FEFB02E04046ADF804008DF807A0A88A8DF806A06946ADF80000D120FEF764
:206A7000EFFB641CA4B2B9F80600A0422FDCA88A0DF149020027511CADF8380012788DF8A7
:206A90003A700DF13B0011F0F3FD01200EA98DF84400D020FEF7D4FB071C0FD1A88A294619
:206AB0001022ADF808000DF10A0011F0E1FD286902A90790D320FEF7C3FB07460C9811F095
:206AD00079F95846016815988847F8B239E0A88AADF802406946ADF80000D12000F098FA0E
:206AF0000028B0D1BDF804008045ACD0ADF8200008A9D42000F08CFA002818BF0C9819D176
:206B100099F80A70002F04BF0C9950460ED00C993B465046A1F1080208329688B04505D0D5
:206B3000B44203D05B1E00F10100F5D187427FF47FAF084611F03EF95846016815988847D8
